{
  "contractName": "Election",
  "abi": [
    {
      "inputs": [],
      "payable": false,
      "stateMutability": "nonpayable",
      "type": "constructor"
    },
    {
      "anonymous": false,
      "inputs": [
        {
          "indexed": true,
          "internalType": "uint256",
          "name": "_candidateId",
          "type": "uint256"
        }
      ],
      "name": "votedEvent",
      "type": "event"
    },
    {
      "constant": true,
      "inputs": [
        {
          "internalType": "address",
          "name": "",
          "type": "address"
        }
      ],
      "name": "owners",
      "outputs": [
        {
          "internalType": "uint256",
          "name": "id",
          "type": "uint256"
        },
        {
          "internalType": "uint256",
          "name": "candidatesCount",
          "type": "uint256"
        },
        {
          "internalType": "uint256",
          "name": "participantsCount",
          "type": "uint256"
        }
      ],
      "payable": false,
      "stateMutability": "view",
      "type": "function"
    },
    {
      "constant": true,
      "inputs": [
        {
          "internalType": "address",
          "name": "",
          "type": "address"
        }
      ],
      "name": "participants",
      "outputs": [
        {
          "internalType": "uint256",
          "name": "id",
          "type": "uint256"
        },
        {
          "internalType": "uint256",
          "name": "candidatesCount",
          "type": "uint256"
        },
        {
          "internalType": "uint256",
          "name": "participantsCount",
          "type": "uint256"
        }
      ],
      "payable": false,
      "stateMutability": "view",
      "type": "function"
    },
    {
      "constant": true,
      "inputs": [],
      "name": "singleElectionCount",
      "outputs": [
        {
          "internalType": "uint256",
          "name": "",
          "type": "uint256"
        }
      ],
      "payable": false,
      "stateMutability": "view",
      "type": "function"
    },
    {
      "constant": true,
      "inputs": [
        {
          "internalType": "uint256",
          "name": "",
          "type": "uint256"
        }
      ],
      "name": "singleElections",
      "outputs": [
        {
          "internalType": "uint256",
          "name": "id",
          "type": "uint256"
        },
        {
          "internalType": "uint256",
          "name": "candidatesCount",
          "type": "uint256"
        },
        {
          "internalType": "uint256",
          "name": "participantsCount",
          "type": "uint256"
        }
      ],
      "payable": false,
      "stateMutability": "view",
      "type": "function"
    },
    {
      "constant": false,
      "inputs": [
        {
          "internalType": "string",
          "name": "_name",
          "type": "string"
        }
      ],
      "name": "addCandidate",
      "outputs": [],
      "payable": false,
      "stateMutability": "nonpayable",
      "type": "function"
    },
    {
      "constant": false,
      "inputs": [
        {
          "internalType": "address",
          "name": "_addr",
          "type": "address"
        },
        {
          "internalType": "string",
          "name": "_name",
          "type": "string"
        }
      ],
      "name": "addParticipant",
      "outputs": [],
      "payable": false,
      "stateMutability": "nonpayable",
      "type": "function"
    },
    {
      "constant": false,
      "inputs": [
        {
          "internalType": "uint256",
          "name": "_candidateId",
          "type": "uint256"
        },
        {
          "internalType": "uint256",
          "name": "_electionId",
          "type": "uint256"
        }
      ],
      "name": "vote",
      "outputs": [],
      "payable": false,
      "stateMutability": "nonpayable",
      "type": "function"
    },
    {
      "constant": false,
      "inputs": [
        {
          "internalType": "string",
          "name": "_owner_name",
          "type": "string"
        }
      ],
      "name": "newSingleElection",
      "outputs": [],
      "payable": false,
      "stateMutability": "nonpayable",
      "type": "function"
    },
    {
      "constant": true,
      "inputs": [],
      "name": "getStatus",
      "outputs": [
        {
          "internalType": "uint256",
          "name": "",
          "type": "uint256"
        },
        {
          "internalType": "uint256",
          "name": "",
          "type": "uint256"
        }
      ],
      "payable": false,
      "stateMutability": "view",
      "type": "function"
    },
    {
      "constant": true,
      "inputs": [
        {
          "internalType": "uint256",
          "name": "electionId",
          "type": "uint256"
        },
        {
          "internalType": "uint256",
          "name": "key",
          "type": "uint256"
        }
      ],
      "name": "getCandidate",
      "outputs": [
        {
          "internalType": "uint256",
          "name": "",
          "type": "uint256"
        },
        {
          "internalType": "string",
          "name": "",
          "type": "string"
        },
        {
          "internalType": "uint256",
          "name": "",
          "type": "uint256"
        }
      ],
      "payable": false,
      "stateMutability": "view",
      "type": "function"
    }
  ],
  "bytecode": "0x608060405234801561001057600080fd5b50611242806100206000396000f3fe608060405234801561001057600080fd5b506004361061009e5760003560e01c806354ebe4071161006657806354ebe40714610174578063b384abef14610190578063b68feb84146101ac578063bf2e56fd146101c8578063fa922ef1146101fa5761009e565b8063022914a7146100a357806309e69ede146100d5578063462e91ec146101075780634bd46448146101235780634e69d56014610155575b600080fd5b6100bd60048036036100b89190810190610ea9565b610218565b6040516100cc93929190611096565b60405180910390f35b6100ef60048036036100ea9190810190610ea9565b610242565b6040516100fe93929190611096565b60405180910390f35b610121600480360361011c9190810190610f26565b61026c565b005b61013d60048036036101389190810190610f90565b6103d1565b60405161014c9392919061102f565b60405180910390f35b61015d6104c8565b60405161016b92919061106d565b60405180910390f35b61018e60048036036101899190810190610f26565b610712565b005b6101aa60048036036101a59190810190610f90565b610915565b005b6101c660048036036101c19190810190610ed2565b610a1e565b005b6101e260048036036101dd9190810190610f67565b610c98565b6040516101f193929190611096565b60405180910390f35b610202610cc2565b60405161020f9190611014565b60405180910390f35b60016020528060005260406000206000915090508060000154908060030154908060060154905083565b60026020528060005260406000206000915090508060000154908060030154908060060154905083565b6000600160003373ffffffffffffffffffffffffffffffffffffffff1673ffffffffffffffffffffffffffffffffffffffff168152602001908152602001600020905060008160000154905060006003600083815260200190815260200160002090508260030160008154809291906001019190505550806003016000815480929190600101919050555060008360030154905060405180606001604052808281526020018681526020016000815250846002016000838152602001908152602001600020600082015181600001556020820151816001019080519060200190610357929190610cc8565b5060408201518160020155905050604051806060016040528082815260200186815260200160008152508260020160008381526020019081526020016000206000820151816000015560208201518160010190805190602001906103bc929190610cc8565b50604082015181600201559050505050505050565b6000606060008060036000878152602001908152602001600020600201600086815260200190815260200160002090506000816000015490506060826001018054600181600116156101000203166002900480601f0160208091040260200160405190810160405280929190818152602001828054600181600116156101000203166002900480156104a45780601f10610479576101008083540402835291602001916104a4565b820191906000526020600020905b81548152906001019060200180831161048757829003601f168201915b50505050509050600083600201549050828282965096509650505050509250925092565b6000806000600160003373ffffffffffffffffffffffffffffffffffffffff1673ffffffffffffffffffffffffffffffffffffffff1681526020019081526020016000206000015414610566576000600160003373ffffffffffffffffffffffffffffffffffffffff1673ffffffffffffffffffffffffffffffffffffffff168152602001908152602001600020600001548191509150915061070e565b6000600260003373ffffffffffffffffffffffffffffffffffffffff1673ffffffffffffffffffffffffffffffffffffffff16815260200190815260200160002060000154146106ff576000600260003373ffffffffffffffffffffffffffffffffffffffff1673ffffffffffffffffffffffffffffffffffffffff1681526020019081526020016000206000015490506003600082815260200190815260200160002060050160003373ffffffffffffffffffffffffffffffffffffffff1673ffffffffffffffffffffffffffffffffffffffff16815260200190815260200160002060009054906101000a900460ff166106ae576001600260003373ffffffffffffffffffffffffffffffffffffffff1673ffffffffffffffffffffffffffffffffffffffff16815260200190815260200160002060000154819150925092505061070e565b60028060003373ffffffffffffffffffffffffffffffffffffffff1673ffffffffffffffffffffffffffffffffffffffff16815260200190815260200160002060000154819150925092505061070e565b60036000819150809050915091505b9091565b6000600160003373ffffffffffffffffffffffffffffffffffffffff1673ffffffffffffffffffffffffffffffffffffffff168152602001908152602001600020600001541461076157600080fd5b600080815480929190600101919050555061077a610d48565b604051806060016040528060005481526020013373ffffffffffffffffffffffffffffffffffffffff16815260200183815250905060405180606001604052806000548152602001600081526020016000815250600360008054815260200190815260200160002060008201518160000155602082015181600301556040820151816006015590505080600360008054815260200190815260200160002060010160008081526020019081526020016000206000820151816000015560208201518160010160006101000a81548173ffffffffffffffffffffffffffffffffffffffff021916908373ffffffffffffffffffffffffffffffffffffffff1602179055506040820151816002019080519060200190610899929190610cc8565b509050506003600080548152602001908152602001600020600160003373ffffffffffffffffffffffffffffffffffffffff1673ffffffffffffffffffffffffffffffffffffffff1681526020019081526020016000206000820154816000015560038201548160030155600682015481600601559050505050565b6003600082815260200190815260200160002060050160003373ffffffffffffffffffffffffffffffffffffffff1673ffffffffffffffffffffffffffffffffffffffff16815260200190815260200160002060009054906101000a900460ff161561098057600080fd5b60006003600083815260200190815260200160002090508060020160008481526020019081526020016000206002016000815480929190600101919050555060018160050160003373ffffffffffffffffffffffffffffffffffffffff1673ffffffffffffffffffffffffffffffffffffffff16815260200190815260200160002060006101000a81548160ff021916908315150217905550505050565b6000600160003373ffffffffffffffffffffffffffffffffffffffff1673ffffffffffffffffffffffffffffffffffffffff168152602001908152602001600020905060008160000154905060006003600083815260200190815260200160002090508260060160008154809291906001019190505550806006016000815480929190600101919050555060008360060154905060405180606001604052808281526020018773ffffffffffffffffffffffffffffffffffffffff168152602001868152508460040160008381526020019081526020016000206000820151816000015560208201518160010160006101000a81548173ffffffffffffffffffffffffffffffffffffffff021916908373ffffffffffffffffffffffffffffffffffffffff1602179055506040820151816002019080519060200190610b65929190610cc8565b5090505083600260008873ffffffffffffffffffffffffffffffffffffffff1673ffffffffffffffffffffffffffffffffffffffff168152602001908152602001600020600082015481600001556003820154816003015560068201548160060155905050836004016000828152602001908152602001600020826004016000838152602001908152602001600020600082015481600001556001820160009054906101000a900473ffffffffffffffffffffffffffffffffffffffff168160010160006101000a81548173ffffffffffffffffffffffffffffffffffffffff021916908373ffffffffffffffffffffffffffffffffffffffff16021790555060028201816002019080546001816001161561010002031660029004610c8c929190610d7f565b50905050505050505050565b60036020528060005260406000206000915090508060000154908060030154908060060154905083565b60005481565b828054600181600116156101000203166002900490600052602060002090601f016020900481019282601f10610d0957805160ff1916838001178555610d37565b82800160010185558215610d37579182015b82811115610d36578251825591602001919060010190610d1b565b5b509050610d449190610e06565b5090565b604051806060016040528060008152602001600073ffffffffffffffffffffffffffffffffffffffff168152602001606081525090565b828054600181600116156101000203166002900490600052602060002090601f016020900481019282601f10610db85780548555610df5565b82800160010185558215610df557600052602060002091601f016020900482015b82811115610df4578254825591600101919060010190610dd9565b5b509050610e029190610e06565b5090565b610e2891905b80821115610e24576000816000905550600101610e0c565b5090565b90565b600081359050610e3a816111d1565b92915050565b600082601f830112610e5157600080fd5b8135610e64610e5f826110fa565b6110cd565b91508082526020830160208301858383011115610e8057600080fd5b610e8b83828461117e565b50505092915050565b600081359050610ea3816111e8565b92915050565b600060208284031215610ebb57600080fd5b6000610ec984828501610e2b565b91505092915050565b60008060408385031215610ee557600080fd5b6000610ef385828601610e2b565b925050602083013567ffffffffffffffff811115610f1057600080fd5b610f1c85828601610e40565b9150509250929050565b600060208284031215610f3857600080fd5b600082013567ffffffffffffffff811115610f5257600080fd5b610f5e84828501610e40565b91505092915050565b600060208284031215610f7957600080fd5b6000610f8784828501610e94565b91505092915050565b60008060408385031215610fa357600080fd5b6000610fb185828601610e94565b9250506020610fc285828601610e94565b9150509250929050565b6000610fd782611126565b610fe18185611131565b9350610ff181856020860161118d565b610ffa816111c0565b840191505092915050565b61100e81611174565b82525050565b60006020820190506110296000830184611005565b92915050565b60006060820190506110446000830186611005565b81810360208301526110568185610fcc565b90506110656040830184611005565b949350505050565b60006040820190506110826000830185611005565b61108f6020830184611005565b9392505050565b60006060820190506110ab6000830186611005565b6110b86020830185611005565b6110c56040830184611005565b949350505050565b6000604051905081810181811067ffffffffffffffff821117156110f057600080fd5b8060405250919050565b600067ffffffffffffffff82111561111157600080fd5b601f19601f8301169050602081019050919050565b600081519050919050565b600082825260208201905092915050565b600061114d82611154565b9050919050565b600073ffffffffffffffffffffffffffffffffffffffff82169050919050565b6000819050919050565b82818337600083830152505050565b60005b838110156111ab578082015181840152602081019050611190565b838111156111ba576000848401525b50505050565b6000601f19601f8301169050919050565b6111da81611142565b81146111e557600080fd5b50565b6111f181611174565b81146111fc57600080fd5b5056fea365627a7a723158202740c047f8a0ac83eebac4c7006d4135e8e7194207fd15788ca8d8b4daef25b46c6578706572696d656e74616cf564736f6c63430005100040",
  "source": "pragma solidity ^0.5.0;\r\npragma experimental ABIEncoderV2;\r\n\r\ncontract Election {\r\n\r\n  struct Participant {\r\n    uint id;\r\n    address addr;\r\n    string name;\r\n  }\r\n\r\n  struct Owner {\r\n    uint id;\r\n    address addr;\r\n    string name;\r\n  }\r\n\r\n  struct Candidate {\r\n    uint id;\r\n    string name;\r\n    uint voteCount;\r\n  }\r\n\r\n  struct SingleElection {\r\n    uint id;\r\n    mapping(uint => Owner) owner;\r\n    mapping(uint => Candidate) candidates;\r\n    uint candidatesCount;\r\n    mapping(uint => Participant) election_participants;\r\n    mapping(address => bool) voted;\r\n    uint participantsCount;\r\n  }\r\n\r\n  uint public singleElectionCount;\r\n  mapping(address => SingleElection) public owners;\r\n  mapping(address => SingleElection) public participants;\r\n  mapping(uint => SingleElection) public singleElections;\r\n\r\n\r\n\r\n  event votedEvent (\r\n    uint indexed _candidateId\r\n  );\r\n\r\n\r\n\r\n  constructor() public {\r\n\r\n  }\r\n\r\n  function addCandidate(string memory _name) public {\r\n    SingleElection storage election = owners[msg.sender];\r\n    uint electionId = election.id;\r\n    SingleElection storage t = singleElections[electionId];\r\n    election.candidatesCount++;\r\n    t.candidatesCount++;\r\n    uint id = election.candidatesCount;\r\n    election.candidates[id] = Candidate(id, _name, 0);\r\n    t.candidates[id] = Candidate(id, _name, 0);\r\n  }\r\n\r\n  function addParticipant(address _addr, string memory _name) public {\r\n    SingleElection storage election = owners[msg.sender];\r\n    uint electionId = election.id;\r\n    SingleElection storage singleElection = singleElections[electionId];\r\n    election.participantsCount++;\r\n    singleElection.participantsCount++;\r\n    uint id = election.participantsCount;\r\n    election.election_participants[id] = Participant(id, _addr, _name);\r\n    participants[_addr] = election;\r\n    singleElection.election_participants[id] = election.election_participants[id];\r\n  }\r\n\r\n  function vote (uint _candidateId, uint _electionId) public {\r\n    require(!singleElections[_electionId].voted[msg.sender]);\r\n\r\n    SingleElection storage election = singleElections[_electionId];\r\n\r\n    election.candidates[_candidateId].voteCount++;\r\n\r\n    election.voted[msg.sender] = true;\r\n  }\r\n\r\n  function newSingleElection(string memory _owner_name) public {\r\n    require(owners[msg.sender].id==0);\r\n    singleElectionCount ++;\r\n    Owner memory t_owner;\r\n    t_owner = Owner(singleElectionCount, msg.sender, _owner_name);\r\n    singleElections[singleElectionCount] = SingleElection(singleElectionCount,0,0);\r\n    singleElections[singleElectionCount].owner[0] = t_owner;\r\n    owners[msg.sender] = singleElections[singleElectionCount];\r\n  }\r\n\r\n  function getStatus() public view returns (uint, uint){\r\n    if(owners[msg.sender].id!=0){\r\n      return (0, owners[msg.sender].id);\r\n    }\r\n    if(participants[msg.sender].id!=0){\r\n      uint electionId = participants[msg.sender].id;\r\n      if(!singleElections[electionId].voted[msg.sender]){\r\n        return (1, participants[msg.sender].id);\r\n      } else {\r\n        return (2, participants[msg.sender].id);\r\n      }\r\n    }\r\n    return (3, 0);\r\n  }\r\n\r\n  function getCandidate(uint electionId, uint key) public view returns (uint, string memory, uint){\r\n    Candidate storage t = singleElections[electionId].candidates[key];\r\n\r\n    uint id = t.id;\r\n    string memory name = t.name;\r\n    uint voteCount = t.voteCount;\r\n\r\n    return (id, name, voteCount);\r\n\r\n  }\r\n\r\n}\r\n",
  "sourcePath": "C:\\Users\\Nikola\\Documents\\fakultet\\Master\\proj\\contracts\\Election.sol",
  "compiler": {
    "name": "solc",
    "version": "0.5.16+commit.9c3226ce.Emscripten.clang"
  },
  "schemaVersion": "3.0.23",
  "updatedAt": "2020-09-16T09:37:22.802Z",
  "devdoc": {
    "methods": {}
  },
  "userdoc": {
    "methods": {}
  }
}